:020000040800F2
:1000000000000220E9090008490900084F0900081A
:10001000550900085B09000861090008000000009C
:100020000000000000000000000000006709000858
:100030007509000800000000830900089109000804
:10004000390A0008390A0008390A0008390A000884
:10005000390A0008390A0008390A0008390A000874
:10006000390A0008390A0008390A0008390A000864
:10007000390A0008390A0008390A0008390A000854
:10008000390A0008390A0008390A0008390A000844
:10009000390A0008390A0008390A0008390A000834
:1000A000390A0008390A0008390A0008390A000824
:1000B000390A0008390A0008390A0008390A000814
:1000C000390A0008390A0008390A0008390A000804
:1000D000390A0008390A0008390A00089D09000891
:1000E000390A0008390A0008390A0008390A0008E4
:1000F000390A0008390A0008390A0008390A0008D4
:10010000390A0008390A0008390A0008390A0008C3
:10011000390A0008390A0008390A0008390A0008B3
:10012000390A0008390A0008390A0008390A0008A3
:10013000390A00080000000000000000390A000829
:10014000390A0008390A0008390A0008B10900080C
:10015000390A0008390A0008390A0008390A000873
:10016000390A0008390A0008390A0008390A000863
:10017000390A0008390A00080000000000000000E9
:08018000390A0008390A0008E1
:1001880010B5054C237833B9044B13B10448AFF3C9
:1001980000800123237010BD0C0000200000000027
:1001A800E045000808B5034B1BB103490348AFF30A
:1001B800008008BD0000000010000020E045000895
:1001C80053B94AB9002908BF00281CBF4FF0FF31B6
:1001D8004FF0FF3000F070B9ADF1080C6DE904CEB6
:1001E80000F006F8DDF804E0DDE9022304B070470A
:1001F8002DE9F047089E0D4604460F46002B4AD1CC
:100208008A42944665D9B2FA82F343B102FA03FCF2
:10021800C3F120029F4020FA02F217439C404FEAA4
:100228001C4E1FFA8CF5B7FBFEF1220C0EFB117762
:1002380042EA074201FB05F090420AD91CEB020290
:1002480001F1FF3780F01C81904240F21981023998
:100258006244121AA4B2B2FBFEF00EFB102244EA6A
:10026800024400FB05F5A5420AD91CEB040400F181
:10027800FF3280F00781A54240F2048164440238CD
:1002880040EA0140641B00211EB1DC400023C6E99E
:100298000043BDE8F0878B4208D9002E00F0ED80BE
:1002A8000021C6E900050846BDE8F087B3FA83F1E6
:1002B800002949D1AB4202D3824200F2F880841A65
:1002C80065EB030201201746002EE2D0C6E900477D
:1002D800DFE702B9FFDEB2FA82F3002B40F090802C
:1002E8008A1A4FEA1C471FFA8CFE0121B2FBF7F568
:1002F80007FB1520220C42EA00420EFB05F0904253
:1003080008D91CEB020205F1FF3802D2904200F234
:10031800CB804546121AA4B2B2FBF7F007FB1022B5
:1003280044EA02440EFB00FEA64508D91CEB04046F
:1003380000F1FF3202D2A64500F2BB801046A4EBC2
:100348000E0440EA05409FE7C1F120078B4022FADE
:1003580007FC4CEA030C05FA01F420FA07F3FD4008
:100368004FEA1C492343B5FBF9F81FFA8CFE09FB39
:1003780018551C0C44EA054408FB0EF5A54202FA80
:1003880001F200FA01F00BD91CEB040408F1FF3A62
:1003980080F08880A54240F28580A8F10208644474
:1003A800641B9DB2B4FBF9F309FB134445EA04440A
:1003B80003FB0EFEA64508D91CEB040403F1FF3528
:1003C8006CD2A6456AD9023B644443EA0843A3FBBE
:1003D8000295A4EB0E04AC42C846AE4656D353D0A1
:1003E80056B1B0EB080264EB0E0404FA07F7CA40F2
:1003F800CC401743C6E9007418460021BDE8F087D1
:10040800C3F1200102FA03FC20FA01F225FA01F1F6
:100418009D402A434FEA1C471FFA8CFEB1FBF7F0B8
:1004280007FB1015110C41EA054100FB0EF58D4242
:1004380004FA03F408D91CEB010100F1FF382FD2AC
:100448008D422DD902386144491B92B2B1FBF7F5B0
:1004580007FB151142EA014205FB0EF1914208D94A
:100468001CEB020205F1FF3816D2914214D9023D65
:100478006244521A45EA004138E73146304608E7F7
:100488003946E6E61046FBE64845A9D2B9EB02082C
:1004980065EB0C0E013BA3E74546EAE72B4694E7DC
:1004A8004046D1E7D0467BE7023D624432E7084642
:1004B8000AE76444023842E7704700BF80B500AFDE
:1004C80003F0A8F900F008F800F0C8F800F06EF89A
:1004D80000F096F8FEE7000080B594B000AF07F191
:1004E800200330220021184604F04AF807F10C03D3
:1004F80000221A605A609A60DA601A610023BB60B1
:10050800284B1B6C274A43F080531364254B1B6C04
:1005180003F08053BB60BB6800237B60224B1B68E1
:10052800214A43F4804313601F4B1B6803F4804344
:100538007B607B6801233B624FF480337B6202233C
:10054800BB634FF48003FB6319233B644FF4A87328
:100558007B640223BB640723FB6407F1200318466E
:1005680001F0ECFD0346002B01D000F009F90F2340
:10057800FB6002233B6100237B614FF4A053BB6106
:100588004FF48053FB6107F10C030521184602F074
:100598004DF80346002B01D000F0F2F800BF5037A9
:1005A800BD4680BD003802400070004080B500AFF5
:1005B800114B124A1A60104B4FF4E1325A600E4B3D
:1005C80000229A600C4B0022DA600B4B00221A6161
:1005D800094B0C225A61084B00229A61064B0022F3
:1005E800DA61054802F002FA0346002B01D000F058
:1005F800C7F800BF80BD00BF2800002000480040A9
:1006080080B500AF144B4FF0A0421A60124B042281
:100618005A60114B0222DA600F4B00221A610E4B0E
:1006280002229A610C4B0022DA610B4B00221A62FB
:10063800094B00225A62084B0122DA62064B00225B
:100648001A63054800F05BFD0346002B01D000F05B
:1006580097F800BF80BD00BF6C00002080B58AB04D
:1006680000AF07F1140300221A605A609A60DA603A
:100678001A6100233B613E4B1B6B3D4A43F010035C
:1006880013633B4B1B6B03F010033B613B69002377
:10069800FB60374B1B6B364A43F080031363344BC4
:1006A8001B6B03F08003FB60FB680023BB60304BCF
:1006B8001B6B2F4A43F0020313632D4B1B6B03F094
:1006C8000203BB60BB6800237B60294B1B6B284A75
:1006D80043F008031363264B1B6B03F008037B608E
:1006E8007B6800233B60224B1B6B214A43F00103CC
:1006F80013631F4B1B6B03F001033B603B68002235
:100708001D211C4800F0D6FC00224FF480411A48F5
:1007180000F0D0FC1D237B610123BB610023FB613A
:1007280000233B6207F114031946124800F026FB28
:100738004FF480437B610123BB610023FB610023ED
:100748003B6207F1140319460B4800F017FB4FF4FE
:1007580080737B610023BB610023FB6107F11403F5
:100768001946064800F00AFB00BF2837BD4680BD81
:10077800003802400010024000040240000C024011
:1007880080B400AF72B600BFFEE7000080B483B04B
:1007980000AF00237B60104B5B6C0F4A43F480432F
:1007A80053640D4B5B6C03F480437B607B680023D0
:1007B8003B60094B1B6C084A43F080531364064B9B
:1007C8001B6C03F080533B603B6800BF0C37BD4691
:1007D8005DF8047B704700BF0038024080B58AB0DE
:1007E80000AF786007F1140300221A605A609A601B
:1007F800DA601A617B681B681D4A934234D1002372
:100808003B611C4B1B6C1B4A43F480231364194B3C
:100818001B6C03F480233B613B690023FB60154B91
:100828001B6B144A43F002031363124B1B6B03F058
:100838000203FB60FB684FF440637B610223BB61EA
:100848000023FB6103233B6207237B6207F1140348
:100858001946094800F092FA00220021272000F0EA
:10086800C4F9272000F0DDF900BF2837BD4680BD58
:1008780000480040003802400004024080B58AB0B9
:1008880000AF786007F1140300221A605A609A607A
:10089800DA601A617B681B68B3F1A04F47D1002367
:1008A8003B61254B1B6B244A43F001031363224B26
:1008B8001B6B03F001033B613B694FF400737B61E1
:1008C8000023BB610023FB6107F1140319461B4891
:1008D80000F054FA4FF4C0537B610223BB6100233C
:1008E800FB6103233B620A237B6207F11403194669
:1008F800124800F043FA104B5B6B0F4A43F0800339
:1009080053630023FB600C4B5B6C0B4A43F480433E
:100918005364094B5B6C03F48043FB60FB68002263
:100928000021432000F061F9432000F07AF900BF6C
:100938002837BD4680BD00BF003802400000024095
:1009480080B400AFFEE780B400AFFEE780B400AF2C
:10095800FEE780B400AFFEE780B400AFFEE780B4E6
:1009680000AF00BFBD465DF8047B704780B400AFA0
:1009780000BFBD465DF8047B704780B400AF00BF80
:10098800BD465DF8047B704780B500AF02F094FF68
:1009980000BF80BD80B500AF024802F075F800BF07
:1009A80080BD00BF2800002080B500AF024800F0DD
:1009B800C3FC00BF80BD00BF6C00002080B400AF46
:1009C800064BD3F88830054A43F47003C2F88830E0
:1009D80000BFBD465DF8047B704700BF00ED00E036
:1009E800DFF834D00D480E490E4A002302E0D458EF
:1009F800C4500433C4188C42F9D30B4A0B4C00235F
:100A080001E013600432A242FBD3FFF7D7FF03F0E3
:100A1800BFFDFFF753FD70470000022000000020D3
:100A28000C000020204600080C0000207C05002057
:100A3800FEE7000080B485B000AF78607B6803F003
:100A48000703FB600C4BDB68BB60BA684FF6FF031B
:100A58001340BB60FB681A02BB68134343F0BF63D3
:100A680043F40033BB60044ABB68D36000BF14374B
:100A7800BD465DF8047B704700ED00E080B400AF30
:100A8800044BDB681B0A03F007031846BD465DF8F4
:100A9800047B704700ED00E080B483B000AF0346EC
:100AA800FB7197F90730002B0BDBFB7903F01F0272
:100AB800074997F907305B09012000FA02F241F86B
:100AC800232000BF0C37BD465DF8047B704700BF8C
:100AD80000E100E080B483B000AF03463960FB71E9
:100AE80097F90730002B0ADB3B68DAB20C4997F913
:100AF80007301201D2B20B4483F800230AE03B68A6
:100B0800DAB20849FB7903F00F03043B1201D2B2B1
:100B18000B441A7600BF0C37BD465DF8047B70475E
:100B280000E100E000ED00E080B489B000AFF860BB
:100B3800B9607A60FB6803F00703FB61FB69C3F1E6
:100B48000703042B28BF0423BB61FB690433062B6E
:100B580002D9FB69033B00E000237B614FF0FF32C1
:100B6800BB6902FA03F3DA43BB681A407B699A400F
:100B78004FF0FF317B6901FA03F3D9437B680B40DF
:100B8800134318462437BD465DF8047B70470000C0
:100B980080B582B000AF78607B68013BB3F1807F9D
:100BA80001D301230FE00A4A7B68013B53600F2100
:100BB8004FF0FF30FFF78EFF054B00229A60044B81
:100BC80007221A60002318460837BD4680BD00BFBB
:100BD80010E000E080B582B000AF78607868FFF779
:100BE80029FF00BF0837BD4680BD80B586B000AF7D
:100BF8000346B9607A60FB7300237B61FFF73EFF11
:100C080078617A68B9687869FFF78EFF024697F9C4
:100C18000F3011461846FFF75DFF00BF1837BD4675
:100C280080BD80B582B000AF0346FB7197F90730ED
:100C38001846FFF731FF00BF0837BD4680BD80B5B5
:100C480082B000AF78607868FFF7A2FF03461846C5
:100C58000837BD4680BD80B584B000AF78607B683A
:100C68009B6DFB6002F03CFEB8607B6893F8353002
:100C7800DBB2022B08D07B6880225A657B68002291
:100C880083F83420012352E07B681B681A687B686C
:100C98001B6822F016021A607B681B685A697B6819
:100CA8001B6822F080025A617B681B6C002B03D101
:100CB8007B689B6C002B07D07B681B681A687B6875
:100CC8001B6822F008021A607B681B681A687B6838
:100CD8001B6822F001021A6013E002F001FE0246CE
:100CE800BB68D31A052B0CD97B6820225A657B6810
:100CF800032283F835207B68002283F834200323FD
:100D080015E07B681B681B6803F00103002BE4D126
:100D18007B68DB6D3F229A40FB689A607B68012202
:100D280083F835207B68002283F834200023184696
:100D38001037BD4680BD80B483B000AF78607B6853
:100D480093F83530DBB2022B04D07B6880225A65D9
:100D580001230CE07B68052283F835207B681B683B
:100D68001A687B681B6822F001021A600023184683
:100D78000C37BD465DF8047B7047000080B489B02D
:100D880000AF7860396000237B6100233B6100235A
:100D9800BB610023FB616BE10122FB6902FA03F3EB
:100DA8007B613B681B687A6913403B613A697B69E0
:100DB8009A4240F05A813B685B6803F00303012BB9
:100DC80005D03B685B6803F00303022B30D17B68D6
:100DD8009B68BB61FB695B00032202FA03F3DB43F8
:100DE800BA691340BB613B68DA68FB695B0002FAC9
:100DF80003F3BA691343BB617B68BA699A607B687D
:100E08005B68BB610122FB6902FA03F3DB43BA6941
:100E18001340BB613B685B681B0903F00102FB6977
:100E280002FA03F3BA691343BB617B68BA695A6073
:100E38003B685B6803F00303032B17D07B68DB6810
:100E4800BB61FB695B00032202FA03F3DB43BA6967
:100E58001340BB613B689A68FB695B0002FA03F3C5
:100E6800BA691343BB617B68BA69DA603B685B683F
:100E780003F00303022B23D1FB69DA087B680832ED
:100E880053F82230BB61FB6903F007039B000F2274
:100E980002FA03F3DB43BA691340BB613B681A6982
:100EA800FB6903F007039B0002FA03F3BA691343D3
:100EB800BB61FB69DA087B680832B96943F822101C
:100EC8007B681B68BB61FB695B00032202FA03F3C2
:100ED800DB43BA691340BB613B685B6803F00302FC
:100EE800FB695B0002FA03F3BA691343BB617B68D1
:100EF800BA691A603B685B6803F44033002B00F062
:100F0800B4800023FB60604B5B6C5F4A43F4804312
:100F180053645D4B5B6C03F48043FB60FB685B4A86
:100F2800FB699B08023352F82330BB61FB6903F06D
:100F380003039B000F2202FA03F3DB43BA69134051
:100F4800BB617B68524A93422BD07B68514A9342DB
:100F580025D07B68504A93421FD07B684F4A934202
:100F680019D07B684E4A934213D07B684D4A93420E
:100F78000DD07B684C4A934207D07B684B4A93421A
:100F880001D107230EE008230CE006230AE005231D
:100F980008E0042306E0032304E0022302E001231F
:100FA80000E00023FA6902F0030292009340BA6954
:100FB8001343BB613549FB699B080233BA6941F8A1
:100FC80023203B4B9B68BB613B69DB43BA691340F9
:100FD800BB613B685B6803F48013002B03D0BA69DC
:100FE8003B691343BB61324ABB699360304BDB6892
:100FF800BB613B69DB43BA691340BB613B685B6813
:1010080003F40013002B03D0BA693B691343BB6197
:10101800274ABB69D360264B5B68BB613B69DB43EE
:10102800BA691340BB613B685B6803F40033002B6B
:1010380003D0BA693B691343BB611D4ABB6953605E
:101048001B4B1B68BB613B69DB43BA691340BB613F
:101058003B685B6803F48033002B03D0BA693B69B3
:101068001343BB61124ABB691360FB690133FB611F
:10107800FB690F2B7FF690AE00BF00BF2437BD463B
:101088005DF8047B704700BF00380240003801401B
:10109800000002400004024000080240000C024028
:1010A800001002400014024000180240001C0240D8
:1010B800003C014080B483B000AF78600B467B8071
:1010C80013467B707B78002B03D07A887B689A6103
:1010D80003E07B881A047B689A6100BF0C37BD4621
:1010E8005DF8047B704780B483B000AF78600B462E
:1010F800FB7000BF0C37BD465DF8047B7047F0B548
:101108008FB00AAF78607B68002B01D101230FE113
:101118007B681B68BB607B6893F8BD34DBB2002B2F
:1011280006D17B68002283F8BC247868FFF7A6FB09
:101138007B68032283F8BD24BB68DB6B03F48073F0
:10114800002B02D17B6800221A617B681B68184655
:1011580002F0FAFC7B681B683B607E686D4606F10E
:1011680010040FCC0FC50FCC0FC594E8030085E819
:101178000300331D0ECB386802F0E2FB0346002B58
:1011880005D07B68022283F8BD240123D0E07B6868
:101198001B680021184602F0E8FC0023FB734AE0B4
:1011A800FA7B79681346DB0013449B000B443D33FC
:1011B80001221A70FA7B79681346DB0013449B00FE
:1011C8000B443C33FA7B1A70FA7BFB7B98B2796844
:1011D8001346DB0013449B000B44443302461A8039
:1011E800FA7B79681346DB0013449B000B444033B9
:1011F80000221A70FA7B79681346DB0013449B00BF
:101208000B44483300221A60FA7B79681346DB00E6
:1012180013449B000B444C3300221A60FA7B796814
:101228001346DB0013449B000B44543300221A601E
:10123800FB7B0133FB73FA7B7B685B689A42AFD315
:101248000023FB7344E0FA7B79681346DB00134400
:101258009B000B4403F27D2300221A70FA7B796805
:101268001346DB0013449B000B4403F51F73FA7B02
:101278001A70FA7B79681346DB0013449B000B4411
:1012880003F5207300221A70FA7B79681346DB0095
:1012980013449B000B4403F5227300221A60FA7B67
:1012A80079681346DB0013449B000B4403F5237352
:1012B80000221A60FA7B79681346DB0013449B000E
:1012C8000B4403F5257300221A60FB7B0133FB7383
:1012D800FA7B7B685B689A42B5D37B681B683B6086
:1012E8007E686D4606F110040FCC0FC50FCC0FC5F4
:1012F80094E8030085E80300331D0ECB386802F03C
:1013080081FC0346002B05D07B68022283F8BD24AC
:1013180001230DE07B68002283F838207B680122D6
:1013280083F8BD247B681B68184602F0B1FF0023D0
:1013380018461437BD46F0BD90B58DB000AF786043
:101348007B681B683B623B6AFB617B681B681846CD
:1013580003F052F80346002B40F08A847B681B6830
:10136800184602F0B6FF0346002B00F08084FB69A4
:1013780003F500639B681B0AC3F30D027B68C3F87F
:10138800FC247B681B68184602F0A3FF034603F0A1
:101398000203022B07D17B681B685A697B681B68AC
:1013A80002F002025A617B681B68184602F091FF3E
:1013B800034603F01003102B61D17B681B689A6900
:1013C8007B681B6822F010029A613B6A1B6ABB614A
:1013D800BB6903F00F021346DB0013449B0003F5BF
:1013E8001E737A68134404337B61BB695B0C03F09A
:1013F8000F03022B24D1BA6947F6F0731340002B70
:1014080035D07B691969BB691B099BB2C3F30A0311
:101418009BB21A46386A02F0E3FE7B691A69BB6917
:101428001B09C3F30A031A447B691A617B691A6AA8
:10143800BB691B09C3F30A031A447B691A6216E0E5
:10144800BB695B0C03F00F03062B10D17B6803F21A
:10145800C44308221946386A02F0C2FE7B691A6A38
:10146800BB691B09C3F30A031A447B691A627B68C8
:101478001B689A697B681B6842F010029A617B6856
:101488001B68184602F025FF034603F40023B3F552
:10149800002F40F0A78000237B627B681B681846FA
:1014A80002F02AFFB86299E0BB6A03F00103002B3F
:1014B80000F08E807B681B687A6AD2B211461846A3
:1014C80002F04EFF38613B6903F00103002B0CD09A
:1014D8007B6A5A01FB69134403F530631A460123FA
:1014E8009360796A786800F0FBFC3B6903F00803B5
:1014F800002B0CD07B6A5A01FB69134403F5306357
:101508001A4608239360796A786800F0D1FD3B6930
:1015180003F01003002B08D07B6A5A01FB691344BF
:1015280003F530631A46102393603B6903F0020306
:10153800002B30D03B6A5B6903F08003802B09D114
:10154800FB6903F500635B68FA6902F5006243F41E
:10155800806353607A6A1346DB0013449B0003F5EB
:101568001E737A68134404337B617B69DB78012B33
:1015780008D17B690022DA707B6ADBB21946786889
:1015880000F0C3FB7B6A5A01FB69134403F530631F
:101598001A46022393603B6903F02003002B08D00E
:1015A8007B6A5A01FB69134403F530631A4620230A
:1015B80093603B6903F40053002B09D07B6A5A01FE
:1015C800FB69134403F530631A464FF400539360E4
:1015D8007B6A01337B62BB6A5B08BB62BB6A002B18
:1015E8007FF462AF7B681B68184602F072FE034600
:1015F80003F48023B3F5802F40F0DB807B681B6801
:10160800184602F093FEB86200237B62CDE0BB6A05
:1016180003F00103002B00F0C2807B681B687A6A24
:10162800D2B21146184602F0B9FE38613B6903F0A0
:101638000103002B57D07B6A03F00F03012202FA43
:1016480003F3FB60FB6903F500635A6BFB68DB433C
:10165800F96901F5006113404B637B6A5A01FB6924
:10166800134403F510631A46012393607B681B69D2
:10167800012B32D179687A6A1346DB0013449B0048
:101688000B444C33196878687A6A1346DB001344B4
:101698009B00034448331B68194478687A6A1346E8
:1016A800DB0013449B0003444C3319607B6A002B16
:1016B80013D179687A6A1346DB0013449B000B4404
:1016C80054331B68002B08D17B6818687B6803F2C9
:1016D800C4431A46012102F0C1FE7B6ADBB21946F7
:1016E800786800F0D4FA3B6903F00803002B08D0AF
:1016F8007B6A5A01FB69134403F510631A460823F1
:1017080093603B6903F01003002B08D07B6A5A01F1
:10171800FB69134403F510631A46102393603B6971
:1017280003F04003002B08D07B6A5A01FB6913447D
:1017380003F510631A46402393603B6903F00203E4
:10174800002B23D0796A386A02F0C0FB7A6A134604
:10175800DB0013449B0038337A68134404337B61FD
:101768007B69DB78012B08D17B690022DA707B6A00
:10177800DBB21946786800F0D4FA7B6A5A01FB6933
:10178800134403F510631A46022393603B6903F080
:101798008003002B03D0796A786800F013FB7B6A1A
:1017A80001337B62BB6A5B08BB62BB6A002B7FF4B8
:1017B8002EAF7B681B68184602F08BFD034603F0CA
:1017C8000043B3F1004F22D1FB6903F500635B6866
:1017D800FA6902F5006223F0010353607B6893F80D
:1017E800F434012B08D17B68002283F8F42400210B
:1017F8007868FFF778FC02E0786800F07CFA7B688C
:101808001B685A697B681B6802F000425A617B6852
:101818001B68184602F05DFD034603F40063B3F548
:10182800006F12D1FB6903F500639B6803F00103A5
:10183800012B02D1786800F054FA7B681B685A695A
:101848007B681B6802F400625A617B681B68184653
:1018580002F03FFD034603F48053B3F5805F40F088
:10186800B780FB6903F500635B68FA6902F50062FB
:1018780023F0010353607B681B681021184602F0AF
:1018880025FB0023FB6246E0FB6A5A01FB6913440F
:1018980003F510631A464FF67F339360FB6A5A01CB
:1018A800FB69134403F510631B68FA6A5101FA696E
:1018B8000A4402F5106223F400131360FB6A5A010C
:1018C800FB69134403F530631A464FF67F33936080
:1018D800FB6A5A01FB69134403F530631B68FA6A13
:1018E8005101FA690A4402F5306223F400131360C7
:1018F800FB6A5A01FB69134403F530631B68FA6AF3
:101908005101FA690A4402F5306243F0006313603A
:10191800FB6A0133FB627B685B68FA6A9A42B3D35D
:10192800FB6903F50063DB69FA6902F5006243F0BD
:101938000113D3617B681B6B002B16D0FB6903F581
:101948000063D3F88430FA6902F5006243F00B03B0
:10195800C2F88430FB6903F500635B6CFA6902F531
:10196800006243F00B03536415E0FB6903F5006361
:101978005B69FA6902F5006243F4005343F02B03F4
:101988005361FB6903F500631B69FA6902F500629C
:1019980043F00B031361FB6903F500631B68FA69E5
:1019A80002F5006223F4FE6313607B6818687B68A5
:1019B8001B69D9B27B6803F2C4431A4602F04EFD94
:1019C8007B681B685A697B681B6802F480525A61FD
:1019D8007B681B68184602F07CFC034603F400533E
:1019E800B3F5005F24D17B681B68184602F012FD2E
:1019F8007B681B68184602F0E6FA03461A467B68BD
:101A0800DA607B681C6800F0BDFF01467B68DB6814
:101A1800DBB21A46204601F0F5FF786800F057F966
:101A28007B681B685A697B681B6802F400525A611C
:101A38007B681B68184602F04CFC034603F0080359
:101A4800082B0AD1786800F038F97B681B685A6956
:101A58007B681B6802F008025A617B681B6818469D
:101A680002F037FC034603F08003802B22D13B6A47
:101A78009B6923F080023B6A9A6101237B6214E030
:101A880079687A6A1346DB0013449B000B4403F21F
:101A98007F231B78012B05D17B6ADBB21946786856
:101AA80000F05FF97B6A01337B627B685B687A6A66
:101AB8009A42E5D37B681B68184602F00AFC034685
:101AC80003F48013B3F5801F3BD101237B622BE025
:101AD8007B6A5A01FB69134403F510631B68BB61F9
:101AE80079687A6A1346DB0013449B000B44403341
:101AF8001B78012B15D1BB69002B12DA79687A6A39
:101B08001346DB0013449B000B443F3301221A7039
:101B18007B6ADBB263F07F03DBB21946786800F0BA
:101B280020F97B6A01337B627B685B687A6A9A4238
:101B3800CED37B681B685A697B681B6802F48012E5
:101B48005A617B681B68184602F0C3FB034603F41E
:101B58000013B3F5001F55D101237B6245E07B6A72
:101B68005A01FB69134403F530631B68BB6179684C
:101B78007A6A1346DB0013449B000B4403F5207379
:101B88001B78012B2ED1BB69002B2BDABB6903F420
:101B980080327B68D3F8FC3403F001039A4221D1E8
:101BA80079687A6A1346DB0013449B000B4403F2FE
:101BB8007F2301221A703B6A9B6943F080023B6ACB
:101BC8009A613B6A5B6903F08003002B0AD1FB69C9
:101BD80003F500635B68FA6902F5006243F4007379
:101BE800536007E07B6A01337B627B685B687A6AD3
:101BF8009A42B4D37B681B685A697B681B6802F4F5
:101C080000125A617B681B68184602F062FB0346A3
:101C180003F08043B3F1804F0AD1786800F08DF863
:101C28007B681B685A697B681B6802F080425A61AE
:101C38007B681B68184602F04CFB034603F004035C
:101C4800042B15D17B681B685B68BB61BB6903F01B
:101C58000403002B02D0786800F079F87B681B68D1
:101C680059687B681B68BA690A435A6000E000BF7C
:101C78003437BD4690BD80B483B000AF78600B4662
:101C8800FB7000BF0C37BD465DF8047B704780B41D
:101C980083B000AF78600B46FB7000BF0C37BD46C1
:101CA8005DF8047B704780B483B000AF786000BFF4
:101CB8000C37BD465DF8047B704780B483B000AF35
:101CC800786000BF0C37BD465DF8047B704780B470
:101CD80083B000AF786000BF0C37BD465DF8047B69
:101CE800704780B483B000AF786000BF0C37BD4642
:101CF8005DF8047B704780B483B000AF786000BFA4
:101D08000C37BD465DF8047B704780B483B000AFE4
:101D180078600B46FB7000BF0C37BD465DF8047B4E
:101D2800704780B483B000AF78600B46FB7000BF8B
:101D38000C37BD465DF8047B704780B483B000AFB4
:101D4800786000BF0C37BD465DF8047B704780B4EF
:101D580083B000AF786000BF0C37BD465DF8047BE8
:101D6800704780B584B000AF78600B46FB7097F978
:101D78000330002B0CDAFB7803F00F021346DB006C
:101D880013449B0038337A6813440433FB600CE037
:101D9800FB7803F00F021346DB0013449B0003F5A6
:101DA8001E737A6813440433FB607B681B68F96808
:101DB800184602F02DF90346FB72FB7A18461037D5
:101DC800BD4680BD80B58AB002AF786039607B6857
:101DD8001B687B617B693B613A681346DB001344EF
:101DE8009B0038337A6813440433FB60FB681A6A33
:101DF800FB689B699A4201D901236CE0FB689A69E8
:101E0800FB681B6AD31AFB61FB68DB68FA699A42B4
:101E180002D9FB68DB68FB61FB6903339B08BB6184
:101E28002BE0FB689A69FB681B6AD31AFB61FB68A5
:101E3800DB68FA699A4202D9FB68DB68FB61FB69D7
:101E480003339B08BB61FB6819693B68DAB2FB691D
:101E580098B27B681B69DBB200930346786902F08D
:101E680081F9FB681A69FB691A44FB681A61FB6807
:101E78001A6AFB691A44FB681A623B685A013B6993
:101E8800134403F510639B699BB2BA699A4209D857
:101E9800FB681A6AFB689B699A4203D2FB689B69D4
:101EA800002BBED1FB689A69FB681B6A9A4211D85D
:101EB8003B6803F00F03012202FA03F3BB603B699E
:101EC80003F500635A6BBB68DB43396901F50061B0
:101ED80013404B63002318462037BD4680BD0000E1
:101EE80080B588B000AF786039607B681B68FB619B
:101EF800FB69BB61FB693C3304331B687B613B684E
:101F08005A01BB69134403F530639B683B617B68E6
:101F18001B69012B7BD13B6903F00803002B15D00B
:101F28007B69614A934240F2B9803B6903F40043FC
:101F3800002B00F0B3803B685A01BB69134403F5DA
:101F480030631A464FF400439360A7E03B6903F0FF
:101F58002003002B09D03B685A01BB69134403F5E1
:101F680030631A462023936098E03B6903F0280306
:101F7800002B40F093807B694B4A93420FD93B6911
:101F880003F40043002B0AD03B685A01BB69134491
:101F980003F530631A464FF4004393607EE03A68D5
:101FA8001346DB0013449B0003F51E737A68134441
:101FB8000433FB60FB68DA693B685901BB690B4471
:101FC80003F530631B69C3F31203D21AFB681A6264
:101FD8003B68002B14D1FB689B69002B09D17B68F7
:101FE80018687B6803F2C4431A46012102F036FAE6
:101FF80006E0FB681A69FB681B6A1A44FB681A61E9
:102008003B68DBB219467868FFF735FE46E07B6926
:10201800264A934224D13B6903F40043002B0AD09B
:102028003B685A01BB69134403F530631A464FF401
:102038000043936032E03B6903F02003002B08D093
:102048003B685A01BB69134403F530631A462023E1
:1020580093603B68DBB219467868FFF70CFE1DE019
:102068003B68002B14D179683A681346DB001344A7
:102078009B000B4403F525731B68002B08D17B6874
:1020880018687B6803F2C4431A46002102F0E6F997
:102098003B68DBB219467868FFF7EDFD0023184668
:1020A8002037BD4680BD00BF0A30544F0A31544F17
:1020B80080B586B000AF786039607B681B687B614B
:1020C8007B693B617B693C3304331B68FB603B687D
:1020D8005A013B69134403F530639B68BB60FB6896
:1020E800154A93420ED9BB6803F40043002B09D06C
:1020F8003B685A013B69134403F530631A464FF4B1
:10210800004393607868FFF7CEFDFB680A4A934264
:102118000CD97B681B69012B08D17B6818687B6820
:1021280003F2C4431A46012102F098F90023184625
:102138001837BD4680BD00BF0A30544F80B586B001
:1021480000AF78607B68002B01D1012367E27B68D0
:102158001B6803F00103002B75D0884B9B6803F0C4
:102168000C03042B0CD0854B9B6803F00C03082B45
:1021780012D1824B5B6803F48003B3F5800F0BD157
:102188007E4B1B6803F40033002B5BD07B685B68D5
:10219800002B57D1012342E27B685B68B3F5803F8F
:1021A80006D1764B1B68754A43F4803313601DE0F3
:1021B8007B685B68B3F5A02F0CD1704B1B686F4A26
:1021C80043F4802313606D4B1B686C4A43F48033DF
:1021D80013600BE0694B1B68684A23F48033136073
:1021E800664B1B68654A23F4802313607B685B6831
:1021F800002B13D001F074FB386108E001F070FB8C
:1022080002463B69D31A642B01D9032307E25B4BCF
:102218001B6803F40033002BF0D014E001F060FBDE
:10222800386108E001F05CFB02463B69D31A642B75
:1022380001D90323F3E1514B1B6803F40033002B4E
:10224800F0D100E000BF7B681B6803F00203002B9D
:1022580063D04A4B9B6803F00C03002B0BD0474B11
:102268009B6803F00C03082B1CD1444B5B6803F4F8
:102278008003002B16D1414B1B6803F00203002B8F
:1022880005D07B68DB68012B01D00123C7E13B4BFC
:102298001B6823F0F8027B681B69DB00374913438E
:1022A8000B603AE07B68DB68002B20D0344B0122BE
:1022B8001A6001F015FB386108E001F011FB0246D5
:1022C8003B69D31A022B01D90323A8E12B4B1B68C6
:1022D80003F00203002BF0D0284B1B6823F0F80210
:1022E8007B681B69DB00254913430B6015E0244B11
:1022F80000221A6001F0F4FA386108E001F0F0FAFF
:1023080002463B69D31A022B01D9032387E11B4BF1
:102318001B6803F00203002BF0D17B681B6803F0F5
:102328000803002B36D07B685B69002B16D0154B51
:1023380001221A6001F0D4FA386108E001F0D0FAFD
:1023480002463B69D31A022B01D9032367E10B4BE1
:102358005B6F03F00203002BF0D01BE0094B002257
:102368001A6001F0BDFA38610EE001F0B9FA0246D0
:102378003B69D31A022B07D9032350E100380240E6
:1023880000004742800E4742884B5B6F03F0020310
:10239800002BEAD17B681B6803F00403002B00F0D4
:1023A80097800023FB75814B1B6C03F08053002B37
:1023B8000FD10023BB607D4B1B6C7C4A43F08053DC
:1023C80013647A4B1B6C03F08053BB60BB6801231A
:1023D800FB75774B1B6803F48073002B18D1744B83
:1023E8001B68734A43F48073136001F079FA38610B
:1023F80008E001F075FA02463B69D31A022B01D9AD
:1024080003230CE16A4B1B6803F48073002BF0D0A4
:102418007B689B68012B06D1644B1B6F634A43F0B2
:10242800010313671CE07B689B68052B0CD15F4B8D
:102438001B6F5E4A43F0040313675C4B1B6F5B4AD8
:1024480043F0010313670BE0584B1B6F574A23F007
:1024580001031367554B1B6F544A23F0040313679A
:102468007B689B68002B15D001F03AFA38610AE0C6
:1024780001F036FA02463B69D31A41F28832934298
:1024880001D90323CBE0494B1B6F03F00203002B58
:10249800EED014E001F024FA38610AE001F020FAE5
:1024A80002463B69D31A41F28832934201D9032389
:1024B800B5E03E4B1B6F03F00203002BEED1FB7D12
:1024C800012B05D1394B1B6C384A23F08053136418
:1024D8007B689B69002B00F0A180344B9B6803F05C
:1024E8000C03082B5CD07B689B69022B41D1314BD4
:1024F80000221A6001F0F4F9386108E001F0F0F9FF
:1025080002463B69D31A022B01D9032387E0274BE4
:102518001B6803F00073002BF0D17B68DA697B68D5
:102528001B6A1A437B685B6A9B011A437B689B6A38
:102538005B08013B1B041A437B68DB6A1B061B49CB
:1025480013434B601B4B01221A6001F0C9F9386133
:1025580008E001F0C5F902463B69D31A022B01D9FC
:1025680003235CE0114B1B6803F00073002BF0D0D1
:1025780054E0104B00221A6001F0B2F9386108E00B
:1025880001F0AEF902463B69D31A022B01D90323A5
:1025980045E0064B1B6803F00073002BF0D13DE0CB
:1025A8007B689B69012B07D1012338E00038024082
:1025B80000700040600047421B4B5B68FB607B6813
:1025C8009B69012B28D0FB6803F480027B68DB69D8
:1025D8009A4221D1FB6803F03F027B681B6A9A424A
:1025E8001AD1FA6847F6C07313407A68526A9201A2
:1025F800934211D1FB6803F440327B689B6A5B0805
:10260800013B1B049A4207D1FB6803F070627B68A8
:10261800DB6A1B069A4201D0012300E0002318461A
:102628001837BD4680BD00BF0038024080B584B071
:1026380000AF786039607B68002B01D10123CCE0C2
:10264800684B1B6803F007033A689A420CD9654B3C
:102658003A68D2B21A70634B1B6803F007033A68F2
:102668009A4201D00123B8E07B681B6803F002039B
:10267800002B20D07B681B6803F00403002B05D0D7
:10268800594B9B68584A43F4E05393607B681B6836
:1026980003F00803002B05D0534B9B68524A43F4C0
:1026A80060439360504B9B6823F0F0027B689B6803
:1026B8004D4913438B607B681B6803F00103002BB3
:1026C80044D07B685B68012B07D1474B1B6803F438
:1026D8000033002B19D101237FE07B685B68022B54
:1026E80003D07B685B68032B07D13F4B1B6803F063
:1026F8000073002B09D101236FE03B4B1B6803F0EB
:102708000203002B01D1012367E0374B9B6823F0BC
:1027180003027B685B68344913438B6001F0E0F87F
:10272800F8600AE001F0DCF80246FB68D31A41F2CF
:102738008832934201D903234FE02B4B9B6803F067
:102748000C027B685B689B009A42EBD1254B1B68A7
:1027580003F007033A689A420CD2224B3A68D2B285
:102768001A70204B1B6803F007033A689A4201D09D
:10277800012332E07B681B6803F00403002B08D0B8
:10278800194B9B6823F4E0527B68DB6816491343B6
:102798008B607B681B6803F00803002B09D0124B81
:1027A8009B6823F460427B681B69DB000E49134376
:1027B8008B6000F021F802460B4B9B681B0903F065
:1027C8000F030A49CB5C22FA03F3094A1360094B49
:1027D8001B68184601F040F8002318461037BD461C
:1027E80080BD00BF003C024000380240F8450008A8
:1027F80000000020040000202DE9B04F90B000AF89
:1028080000237B630023FB6300233B630023BB633C
:10281800594B9B6803F00C03082B0DD0082B00F2D2
:10282800A180002B02D0042B03D09BE0534BBB6349
:102838009BE0534BBB6398E04F4B5B6803F03F034F
:102848007B634D4B5B6803F48003002B28D04A4B15
:102858005B689B0900223B627A623B6AC3F308000B
:102868000021474B03FB01F2002300FB03F3134451
:10287800434AA0FB0212FA620A46BA62FA6A134491
:10288800FB627B6B0022BB61FA61D7E90623D7E9BB
:102898000A01FDF795FC02460B461346FB6353E01D
:1028A800354B5B689B0900223B617A613B69C3F346
:1028B800080A4FF0000B52465B464FF000004FF0FD
:1028C8000001590141EAD261500102460B46B2EBC0
:1028D8000A0863EB0B094FF000024FF000034FEAC0
:1028E800891343EA98634FEA8812B2EB080463EB52
:1028F80009054FF000024FF00003EB0043EA547360
:10290800E20014461D4614EB0A033B6045EB0B033B
:102918007B604FF000024FF00003D7E900452946DD
:102928008B02214643EA915321468A0210461946F2
:102938007B6B0022BB60FA60D7E90223FDF740FCFD
:1029480002460B461346FB630B4B5B681B0C03F0FC
:10295800030301335B003B63FA6B3B6BB2FBF3F39E
:10296800BB6302E0054BBB6300BFBB6B1846403737
:10297800BD46BDE8B08F00BF003802400024F40017
:1029880040787D0180B400AF034B1B681846BD46F4
:102998005DF8047B704700BF0000002080B500AFE1
:1029A800FFF7F0FF0246054B9B689B0A03F00703FD
:1029B8000349CB5C22FA03F3184680BD0038024075
:1029C8000846000880B500AFFFF7DCFF0246054B5C
:1029D8009B685B0B03F007030349CB5C22FA03F304
:1029E800184680BD003802400846000880B582B00D
:1029F80000AF78607B68002B01D101233FE07B6842
:102A080093F83D30DBB2002B06D17B68002283F8B7
:102A18003C207868FDF7E2FE7B68242283F83D209D
:102A28007B681B68DA687B681B6822F40052DA60EE
:102A3800786800F07BFC7B681B681A697B681B68F8
:102A480022F490421A617B681B685A697B681B688C
:102A580022F02A025A617B681B68DA687B681B6867
:102A680042F40052DA607B6800221A647B682022F4
:102A780083F83D207B68202283F83E2000231846F7
:102A88000837BD4680BD000080B5BAB000AF786099
:102A98007B681B681B68C7F8E4307B681B68DB68C9
:102AA800C7F8E0307B681B685B69C7F8DC30002337
:102AB800C7F8D8300023C7F8D430D7F8E43003F08B
:102AC8000F03C7F8D830D7F8D830002B0FD1D7F874
:102AD800E43003F02003002B09D0D7F8E03003F0EE
:102AE8002003002B03D0786800F065FB56E2D7F886
:102AF800D830002B00F0DE80D7F8DC3003F001037B
:102B0800002B06D1D7F8E03003F49073002B00F0C7
:102B1800D180D7F8E43003F00103002B0BD0D7F8AD
:102B2800E03003F48073002B05D07B681B6C43F006
:102B380001027B681A64D7F8E43003F00403002B21
:102B48000BD0D7F8DC3003F00103002B05D07B68ED
:102B58001B6C43F002027B681A64D7F8E43003F078
:102B68000203002B0BD0D7F8DC3003F00103002B55
:102B780005D07B681B6C43F004027B681A64D7F8A5
:102B8800E43003F00803002B11D0D7F8E03003F04D
:102B98002003002B05D1D7F8DC3003F00103002B0C
:102BA80005D07B681B6C43F008027B681A647B685D
:102BB8001B6C002B00F0ED81D7F8E43003F0200304
:102BC800002B08D0D7F8E03003F02003002B02D008
:102BD800786800F0F0FA7B681B685B6903F04003D3
:102BE800402B0CBF01230023DBB2C7F8D4307B682D
:102BF8001B6C03F00803002B03D1D7F8D430002B4B
:102C08004FD0786800F0F8F97B681B685B6903F0BF
:102C18004003402B41D17B681B681433C7F89C30B4
:102C2800D7F89C3053E8003FC7F89830D7F8983069
:102C380023F04003C7F8D0307B681B681433D7F8FB
:102C4800D020C7F8A820C7F8A430D7F8A410D7F820
:102C5800A82041E80023C7F8A030D7F8A030002BFF
:102C6800D9D17B689B6B002B13D07B689B6B7D4A0B
:102C78001A657B689B6B1846FEF75DF80346002BC8
:102C880016D07B689B6B1B6D7A68926B10469847D1
:102C98000EE0786800F09AF90AE0786800F096F992
:102CA80006E0786800F092F97B6800221A6470E107
:102CB80000BF6EE17B681B6B012B40F04A81D7F89F
:102CC800E43003F01003002B00F04381D7F8E03024
:102CD80003F01003002B00F03C810023BB607B68ED
:102CE8001B681B68BB607B681B685B68BB60BB6854
:102CF8007B681B685B6903F04003402B40F0B4809D
:102D08007B689B6B1B685B68A7F8BE30B7F8BE3062
:102D1800002B00F040817B689B8DB7F8BE209A425B
:102D280080F039817B68B7F8BE20DA857B689B6BB9
:102D3800DB69B3F5807F00F088807B681B680C3303
:102D4800C7F88830D7F8883053E8003FC7F8843090
:102D5800D7F8843023F48073C7F8B8307B681B68D1
:102D68000C33D7F8B820C7F89420C7F89030D7F8B4
:102D78009010D7F8942041E80023C7F88C30D7F892
:102D88008C30002BD9D17B681B6814337B677B6F31
:102D980053E8003F3B673B6F23F00103C7F8B430AB
:102DA8007B681B681433D7F8B420C7F88020FB670A
:102DB800F96FD7F8802041E80023BB67BB6F002B71
:102DC800E1D17B681B6814333B663B6E53E8003FD8
:102DD800FB65FB6D23F04003C7F8B0307B681B68C8
:102DE8001433D7F8B020FA66BB66B96EFA6E41E8BC
:102DF80000237B667B6E002BE3D17B68202283F85F
:102E08003E207B6800221A637B681B680C33FB64D6
:102E1800FB6C53E8003FBB64BB6C23F01003C7F89E
:102E2800AC307B681B680C33D7F8AC20BA657B657F
:102E3800796DBA6D41E800233B653B6D002BE3D10A
:102E48007B689B6B1846FDF706FF7B689A8D7B684D
:102E5800DB8D9BB2D31A9BB21946786800F0C0F894
:102E680099E000BFC73000087B689A8D7B68DB8DCE
:102E78009BB2D31AA7F8CE307B68DB8D9BB2002BB0
:102E880000F08B80B7F8CE30002B00F086807B688E
:102E98001B680C33BB63BB6B53E8003F7B637B6BE6
:102EA80023F49073C7F8C8307B681B680C33D7F8D5
:102EB800C8207A643B64396C7A6C41E80023FB6370
:102EC800FB6B002BE3D17B681B6814337B627B6A46
:102ED80053E8003F3B623B6A23F00103C7F8C43064
:102EE8007B681B681433D7F8C4203A63FB62F96A1D
:102EF8003A6B41E80023BB62BB6A002BE3D17B68D5
:102F0800202283F83E207B6800221A637B681B68B6
:102F18000C333B613B6953E8003FFB60FB6823F0DF
:102F28001003C7F8C0307B681B680C33D7F8C02083
:102F3800FA61BB61B969FA6941E800237B617B6981
:102F4800002BE3D1B7F8CE301946786800F048F87E
:102F580023E0D7F8E43003F08003002B09D0D7F83A
:102F6800E03003F08003002B03D0786800F0BBF852
:102F780014E0D7F8E43003F04003002B0ED0D7F864
:102F8800E03003F04003002B08D0786800F0FBF82D
:102F980004E000BF02E000BF00E000BFE837BD4624
:102FA80080BD00BF80B483B000AF786000BF0C372D
:102FB800BD465DF8047B704780B483B000AF78608D
:102FC80000BF0C37BD465DF8047B704780B483B002
:102FD80000AF786000BF0C37BD465DF8047B7047D2
:102FE80080B483B000AF78600B467B8000BF0C379D
:102FF800BD465DF8047B704780B495B000AF78603B
:103008007B681B680C337B637B6B53E8003F3B6337
:103018003B6B23F49073FB647B681B680C33FA6C7E
:103028003A64FB63F96B3A6C41E80023BB63BB6B02
:10303800002BE5D17B681B6814333B623B6A53E87D
:10304800003FFB61FB6923F00103BB647B681B68DD
:103058001433BA6CFA62BB62B96AFA6A41E80023AF
:103068007B627B6A002BE5D17B681B6B012B19D136
:103078007B681B680C33FB60FB6853E8003FBB6050
:10308800BB6823F010037B647B681B680C337A6C85
:10309800BA617B617969BA6941E800233B613B69A0
:1030A800002BE5D17B68202283F83E207B68002234
:1030B8001A6300BF5437BD465DF8047B704780B57E
:1030C80084B000AF78607B689B6BFB60FB68002274
:1030D800DA85FB680022DA84F868FFF777FF00BF1B
:1030E8001037BD4680BD80B485B000AF78607B687E
:1030F80093F83D30DBB2212B3ED17B689B68B3F55A
:10310800805F14D17B681B69002B10D17B681B6A18
:10311800FB60FB681B881A467B681B68C2F30802C1
:103128005A607B681B6A9A1C7B681A6208E07B6895
:103138001B6A591C7A6811621A787B681B685A6086
:103148007B68DB8C9BB2013B9BB27A681946D184C1
:10315800002B0FD17B681B68DA687B681B6822F03C
:103168008002DA607B681B68DA687B681B6842F05B
:103178004002DA60002300E0022318461437BD46F7
:103188005DF8047B704780B582B000AF78607B68DB
:103198001B68DA687B681B6822F04002DA607B688B
:1031A800202283F83D207868FFF7FCFE00231846AC
:1031B8000837BD4680BD80B58CB000AF78607B68AD
:1031C80093F83E30DBB2222B40F0AB807B689B68E3
:1031D800B3F5805F17D17B681B69002B13D10023DF
:1031E800FB627B689B6ABB627B681B685B689BB2FF
:1031F800C3F308039AB2BB6A1A807B689B6A9A1C5D
:103208007B689A6226E07B689B6AFB620023BB624C
:103218007B689B68B3F5805F07D07B689B68002B51
:103228000AD17B681B69002B06D17B681B685B6829
:10323800DAB2FB6A1A7008E07B681B685B68DBB26D
:1032480003F07F03DAB2FB6A1A707B689B6A5A1C28
:103258007B689A627B68DB8D9BB2013B9BB27A6884
:103268001946D185002B5AD17B681B68DA687B68C0
:103278001B6822F02002DA607B681B68DA687B68CA
:103288001B6822F48072DA607B681B685A697B6865
:103298001B6822F001025A617B68202283F83E20D5
:1032A8007B681B6B012B35D17B6800221A637B6816
:1032B8001B680C337B617B6953E8003F3B613B69CA
:1032C80023F010037B627B681B680C337A6A3A62CE
:1032D800FB61F9693A6A41E80023BB61BB69002BCD
:1032E800E5D17B681B681B6803F01003102B0AD11B
:1032F8000023FB607B681B681B68FB607B681B689E
:103308005B68FB60FB687B689B8D19467868FFF7F4
:1033180067FE02E07868FFF74FFE002302E0002313
:1033280000E0022318463037BD4680BD2DE9B04F76
:10333800C0B000AFC7F8F400D7F8F4301B681B69B9
:1033480023F44050D7F8F430D968D7F8F4301A6825
:1033580040EA01031361D7F8F4309A68D7F8F430DB
:103368001B691A43D7F8F4305B691A43D7F8F4306D
:10337800DB691343C7F8F830D7F8F4301B68DB680B
:1033880023F4164121F00C01D7F8F4301A68D7F865
:10339800F8300B43D360D7F8F4301B685B6923F42B
:1033A8004070D7F8F4309969D7F8F4301A6840EAD1
:1033B80001035361D7F8F4301A688F4B9A4205D04D
:1033C800D7F8F4301A688D4B9A4204D1FFF7FAFA0D
:1033D800C7F8FC0003E0FFF7E1FAC7F8FC00D7F8EC
:1033E800F430DB69B3F5004F40F00C81D7F8FC30BE
:1033F8000022C7F8E830C7F8EC20D7E93A4522465A
:103408002B469118B9655B41FB65D7E91623214620
:1034180012EB0108294643EB01094FF000024FF077
:1034280000034FEAC90343EA58734FEAC8029046BB
:103438009946234618EB0303C7F8E0302B4649EBBF
:103448000303C7F8E430D7F8F4305B680022C7F804
:10345800D830C7F8DC20D7E936120B46DB183B65B5
:10346800134642EB03037B65D7E91423D7E93801F8
:10347800FCF7A6FE02460B46614BA3FB02235B0941
:103488001C01D7F8FC300022C7F8D030C7F8D42088
:10349800D7E9348942464B469118B9645B41FB64CD
:1034A800D7E91223414612EB010A494643EB010BC7
:1034B8004FF000024FF000034FEACB0343EA5A7380
:1034C8004FEACA0292469B4643461AEB0303C7F8E3
:1034D800C8304B464BEB0303C7F8CC30D7F8F43071
:1034E8005B680022C7F8C030C7F8C420D7E930129B
:1034F8000B46DB183B64134642EB03037B64D7E9B6
:103508001023D7E93201FCF75BFE02460B46114651
:103518003B4BA3FB01235B09642202FB03F3CB1A99
:10352800DB0003F13202364BA3FB02235B095B008D
:1035380003F4F8731C44D7F8FC300022C7F8B830FD
:10354800C7F8BC20D7E92E8942464B469118B96383
:103558005B41FB63D7E90E2341465118396349465D
:103568004B417B634FF000024FF00003D7E90CABEF
:103578005946CB00514643EA51735146CA0010469A
:103588001946034642469B18C7F8B0304B460A46D0
:1035980042EB0303C7F8B430D7F8F4305B68002275
:1035A800C7F8A830C7F8AC20D7E92A120B46DB18B1
:1035B800BB62134642EB0303FB62D7E90A23D7E950
:1035C8002C01FCF7FDFD02460B460D4BA3FB021335
:1035D8005B09642101FB03F3D31ADB003233084A89
:1035E800A2FB03235B0903F00702D7F8F4301B683A
:1035F80022449A6006E100BF001001400014014017
:103608001F85EB51D7F8FC300022C7F8A030C7F867
:10361800A420D7E9288942464B46911839625B4174
:103628007B62D7E9082341465418494643EB010514
:103638004FF000024FF00003EB0043EA5473E2003E
:1036480014461D464346E318C7F898304B4645EBE9
:103658000303C7F89C30D7F8F4305B680022C7F83A
:103668009030C7F894204FF000024FF00003D7E9DC
:10367800244529468B00214643EA917321468A0056
:10368800D7E92601FCF79CFD02460B46604BA3FBDD
:1036980002235B091C01D7F8FC300022C7F88830E8
:1036A800C7F88C20D7E9228942464B469118B96160
:1036B8005B41FB61D7E90623414651183961494608
:1036C8004B417B614FF000024FF00003D7E904AB98
:1036D8005946CB00514643EA51735146CA00104639
:1036E8001946034642469B18C7F880304B460A469F
:1036F80042EB0303C7F88430D7F8F4305B68002244
:10370800BB67FA674FF000024FF00003D7E91E8944
:1037180049468B00414643EA917341468A00D7E9FE
:103728002001FCF74DFD02460B461146384BA3FB22
:1037380001235B09642202FB03F3CB1A1B0132331A
:10374800334AA2FB03235B0903F0F0031C44D7F8B8
:10375800FC3000223B677A67D7E91C8942464B4612
:103768009118B9605B41FB60D7E9022341465118C3
:10377800396049464B417B604FF000024FF000032F
:10378800D7E900AB5946CB00514643EA517351463D
:10379800CA0010461946034642469B18BB664B466C
:1037A8000A4642EB0303FB66D7F8F4305B68002255
:1037B8003B667A664FF000024FF00003D7E918899C
:1037C80049468B00414643EA917341468A00D7E94E
:1037D8001A01FCF7F5FC02460B460D4BA3FB02133E
:1037E8005B09642101FB03F3D31A1B013233084A36
:1037F800A2FB03235B0903F00F02D7F8F4301B6820
:1038080022449A6000BF07F58077BD46BDE8B08FB7
:103818001F85EB5180B500AF0E4B1B680D4A43F472
:10382800007313600B4B1B680A4A43F480631360F0
:10383800084B1B68074A43F4807313600320FDF7A5
:10384800C9F90F2000F008F8FCF7A0FF002318467C
:1038580080BD00BF003C024080B582B000AF7860F8
:10386800124B1A68124B1B7819464FF47A73B3FB44
:10387800F1F3B2FBF3F31846FDF7E1F90346002B29
:1038880001D001230EE07B680F2B0AD8002279684B
:103898004FF0FF30FDF7A9F9064A7B681360002353
:1038A80000E0012318460837BD4680BD000000200F
:1038B800080000200400002080B400AF064B1B78ED
:1038C8001A46064B1B681344044A136000BFBD46E2
:1038D8005DF8047B704700BF0800002078050020D1
:1038E80080B400AF034B1B681846BD465DF8047BE7
:1038F800704700BF7805002080B584B000AF7860BD
:10390800FFF7EEFFB8607B68FB60FB68B3F1FF3F31
:1039180005D00A4B1B781A46FB681344FB6000BFAE
:10392800FFF7DEFF0246BB68D31AFA689A42F7D857
:1039380000BF00BF1037BD4680BD00BF0800002093
:1039480084B080B584B000AF786007F11C0080E8CF
:103958000E003B6B012B22D17B689B6B23F48032DA
:103968007B689A637B68DB6823F4840323F0400355
:103978007A68D3607B68DB6823F440127B68DA607E
:10398800FB6C012B05D17B68DB6843F480127B68F4
:10399800DA60786800F0C0FD0346FB731AE07B68C4
:1039A800DB6843F040027B68DA60786800F0B4FDB9
:1039B8000346FB733B6C002B06D17B689B6B43F47F
:1039C80080327B689A6305E07B689B6B23F48032C6
:1039D8007B689A63BB6A012B0BD17B689B6843F0B9
:1039E80006027B689A607B689B6843F020027B68CC
:1039F8009A60FB7B18461037BD46BDE8804004B08E
:103A08007047000080B487B000AFF860B960134613
:103A1800FB71FB79022B65D1BB68414A934206D9F9
:103A2800BB68404A934202D20F237B6162E0BB68C5
:103A38003C4A934206D3BB683B4A934202D20E23C8
:103A48007B6157E0BB68384A934206D3BB68374A64
:103A5800934202D20D237B614CE0BB68334A934208
:103A680006D3BB68324A934202D80C237B6141E0FB
:103A7800BB682F4A934206D9BB682E4A934202D8A4
:103A88000B237B6136E0BB682A4A934206D9BB68A0
:103A9800294A934202D80A237B612BE0BB68264A55
:103AA800934206D9BB68254A934202D209237B6117
:103AB80020E0BB68214A934206D3BB68204A934260
:103AC80002D808237B6115E0BB681D4A934206D9DA
:103AD800BB681C4A934202D207237B610AE0062393
:103AE8007B6107E0FB79002B02D109237B6101E0B0
:103AF80009237B61FB68DB6823F47052FB68DA609A
:103B0800FB68DA687B699B0203F470531A43FB680D
:103B1800DA60002318461C37BD465DF8047B704701
:103B2800BFACD800C0E1E4000024F40080730601B3
:103B38009F491A01FF2C31013FA44C0100366E0148
:103B48001FABA6010048E80180B483B000AF7860DD
:103B58007B689B6823F001027B689A600023184603
:103B68000C37BD465DF8047B704780B584B000AF64
:103B780078600B46FB700023FB607B68DB6823F0F2
:103B8800C0427B68DA60FB78012B15D17B68DB6863
:103B980043F000527B68DA600120FFF7ADFEFB6856
:103BA8000133FB60786800F027FC0346012B1ED028
:103BB800FB68312BF0D91AE0FB78002B15D17B6814
:103BC800DB6843F080427B68DA600120FFF794FEEF
:103BD800FB680133FB60786800F00EFC0346002B9D
:103BE80005D0FB68312BF0D901E0012305E0FB6823
:103BF800322B01D1012300E0002318461037BD46BF
:103C080080BD000084B080B586B000AF786007F151
:103C1800240080E80E000023FB757B68FB6000230E
:103C28003B6109E07A683B6940339B0013440022FA
:103C38005A603B6901333B613B690E2BF2D9FB6C3F
:103C4800002B1CD1FB6803F500635B68FA6802F57A
:103C5800006243F0020353607B689B6B43F40012DD
:103C68007B689A637B689B6B23F400227B689A636A
:103C78007B689B6B23F480227B689A630BE07B68EC
:103C88009B6B23F400127B689A637B689B6B43F4FD
:103C980000227B689A63FB6803F560631A46002379
:103CA8001360FB6803F500631946FB6803F50063BE
:103CB8001A460B681360BB6B012B0CD1FB6A002BF7
:103CC80004D10021786800F065F908E001217868DE
:103CD80000F060F903E00321786800F05BF9102137
:103CE800786800F0F3F80346002B01D00123FB7538
:103CF800786800F01FF90346002B01D00123FB75FB
:103D0800FB6803F500631A4600231361FB6803F59B
:103D180000631A4600235361FB6803F500631A46E3
:103D28000023D36100233B6143E03B695A01FB68F0
:103D3800134403F510631B6803F00043B3F1004F0D
:103D480018D13B69002B0AD13B695A01FB6813441F
:103D580003F510631A464FF00063136013E03B69E4
:103D68005A01FB68134403F510631A464FF0904359
:103D7800136008E03B695A01FB68134403F51063BC
:103D88001A46002313603B695A01FB68134403F584
:103D980010631A46002313613B695A01FB681344F8
:103DA80003F510631A464FF67F3393603B6901337E
:103DB8003B617B6A3A699A42B7D300233B6143E08F
:103DC8003B695A01FB68134403F530631B6803F031
:103DD8000043B3F1004F18D13B69002B0AD13B696E
:103DE8005A01FB68134403F530631A464FF0006329
:103DF800136013E03B695A01FB68134403F5306311
:103E08001A464FF09043136008E03B695A01FB687B
:103E1800134403F530631A46002313603B695A01C3
:103E2800FB68134403F530631A46002313613B69AA
:103E38005A01FB68134403F530631A464FF67F3383
:103E480093603B6901333B617B6A3A699A42B7D315
:103E5800FB6803F500631B69FA6802F5006223F446
:103E6800807313617B6800229A617B686FF08042DF
:103E78005A613B6B002B05D17B689B6943F01002AC
:103E88007B689A617B689A690F4B13437A689361E0
:103E9800FB6B002B05D07B689B6943F008027B68AD
:103EA8009A61FB6C012B07D17B689B6943F08043C7
:103EB80043F004037A689361FB7D18461837BD46C2
:103EC800BDE8804004B0704700383C8080B485B0BD
:103ED80000AF786039600023FB60FB680133FB604A
:103EE800FB68134A934201D903231BE07B681B69D3
:103EF800002BF2DA0023FB603B689B0143F02002B1
:103F08007B681A61FB680133FB60FB68084A9342CF
:103F180001D9032306E07B681B6903F02003202BEB
:103F2800F0D0002318461437BD465DF8047B70476F
:103F3800400D030080B485B000AF78600023FB60BB
:103F4800FB680133FB60FB68114A934201D90323E4
:103F580018E07B681B69002BF2DA0023FB607B68A2
:103F680010221A61FB680133FB60FB68084A934220
:103F780001D9032306E07B681B6903F01003102BAB
:103F8800F0D0002318461437BD465DF8047B70470F
:103F9800400D030080B485B000AF78600B46FB701D
:103FA8007B68FB60FB6803F500631A68FB78F968B7
:103FB80001F5006113430B60002318461437BD4612
:103FC8005DF8047B704780B487B000AF78607B6889
:103FD8003B613B6903F500639B6803F00603FB60E4
:103FE800FB68002B02D10023FB750AE0FB68022B5B
:103FF80002D0FB68062B02D10223FB7501E00F23D8
:10400800FB75FB7D18461C37BD465DF8047B704781
:1040180080B487B000AF786039600023FB6000236C
:10402800FB757B683B613B685B78012B4AD13B6839
:104038001B785A013B69134403F510631B6803F0AE
:104048000043B3F1004F40F086803B681B785A016B
:104058003B69134403F510631B683A6812785101F1
:104068003A690A4402F5106243F0006313603B6842
:104078001B785A013B69134403F510631B683A68BF
:10408800127851013A690A4402F5106243F08043FC
:104098001360FB680133FB60FB6842F210729342C5
:1040A80002D90123FB7556E03B681B785A013B692E
:1040B800134403F510631B6803F00043B3F1004F8A
:1040C800E7D048E03B681B785A013B69134403F585
:1040D80030631B6803F00043B3F1004F3BD13B68EA
:1040E8001B785A013B69134403F530631B683A682F
:1040F800127851013A690A4402F5306243F00063CC
:1041080013603B681B785A013B69134403F530631D
:104118001B683A68127851013A690A4402F530621C
:1041280043F080431360FB680133FB60FB6842F295
:104138001072934202D90123FB750CE03B681B788F
:104148005A013B69134403F530631B6803F00043CD
:10415800B3F1004FE7D0FB7D18461C37BD465DF82C
:10416800047B704780B489B000AFF860B96011462D
:104178001A460B46FB711346BB80FB687B61BB6824
:10418800FB6197F82830002B23D1BB8803339B08A9
:104198003B610023BB6118E0FB791A037B69134478
:1041A80003F580531A46FB691B681360FB690133EA
:1041B800FB61FB690133FB61FB690133FB61FB694F
:1041C8000133FB61BB690133BB61BA693B699A4240
:1041D800E2D3002318462437BD465DF8047B7047B8
:1041E80080B48BB000AFF860B9601346FB80FB6801
:1041F800BB61BB687B62FB889B089BB27B61FB88C9
:1042080003F00303FB8300233B6214E0BB6903F55F
:1042180080531A687B6A1A607B6A01337B627B6A07
:1042280001337B627B6A01337B627B6A01337B6289
:104238003B6A01333B623A6A7B699A42E6D3FB8B5D
:10424800002B1ED000233B62BB6903F580531A463E
:1042580007F1100312681A603A693B6ADBB2DB00A7
:1042680022FA03F3DAB27B6A1A703B6A01333B62C3
:104278007B6A01337B62FB8B013BFB83FB8B002B4F
:10428800EAD17B6A18462C37BD465DF8047B704737
:1042980080B485B000AF78607B68FB60FB6803F58D
:1042A80060631B68FA6802F5606223F00303136019
:1042B800FB6803F500635B68FA6802F5006243F087
:1042C80002035360002318461437BD465DF8047B8B
:1042D800704780B485B000AF78607B685B69FB602D
:1042E8007B689B69FA681340FB60FB6818461437C3
:1042F800BD465DF8047B704780B485B000AF786038
:104308007B68FB60FB6803F500639B69BB60FB6827
:1043180003F50063DB69BA681340BB60BB681B0C1C
:1043280018461437BD465DF8047B704780B485B0E5
:1043380000AF78607B68FB60FB6803F500639B69EE
:10434800BB60FB6803F50063DB69BA681340BB60B8
:10435800BB689BB218461437BD465DF8047B7047AE
:1043680080B485B000AF78600B46FB707B68FB605B
:10437800FB785A01FB68134403F530639B68BB6004
:10438800FB6803F500635B69BA681340BB60BB68F0
:1043980018461437BD465DF8047B704780B487B073
:1043A80000AF78600B46FB707B687B617B6903F527
:1043B80000631B693B617B6903F500635B6BFB6012
:1043C800FB7803F00F03FA6822FA03F3DB01DBB290
:1043D8003A6913433B61FB785A017B69134403F53F
:1043E80010639B683A691340BB60BB6818461C376A
:1043F800BD465DF8047B704780B483B000AF786039
:104408007B685B6903F0010318460C37BD465DF80D
:10441800047B704780B485B000AF78607B68FB6030
:10442800FB6803F510631B68FA6802F5106223F451
:10443800FF6323F007031360FB6803F500635B6801
:10444800FA6802F5006243F480735360002318464B
:104458001437BD465DF8047B7047000080B487B010
:1044680000AFF8600B467A60FB72FB687B61FB6803
:104478003C3304331B683B613B69264A93420AD9A3
:104488007B6903F530631B6803F00043B3F1004F09
:1044980001D1002337E07B6903F530631A46002316
:1044A80013617B6903F530631B697A6902F5306231
:1044B80043F4002313617B6903F530631B697A6950
:1044C80002F5306243F0180313617B6903F530632A
:1044D8001B697A6902F5306243F0C0431361FB7AC5
:1044E800012B0FD17B6903F530631A467B68536152
:1044F8007B6903F530631B687A6902F5306243F023
:1045080080231360002318461C37BD465DF8047BE2
:10451800704700BF0A30544F80B485B000AF786050
:104528000023FB60FB680133FB60FB68134A93427E
:1045380001D903231BE07B681B69002BF2DA0023F7
:10454800FB607B681B6943F001027B681A61FB68AA
:104558000133FB60FB68094A934201D9032306E053
:104568007B681B6903F00103012BF0D00023184678
:104578001437BD465DF8047B704700BF400D03004B
:1045880002440346934200D1704703F8011BF9E740
:1045980070B50D4D0D4C641BA4100026A64209D120
:1045A8000B4D0C4C00F018F8641BA4100026A64212
:1045B80005D170BD55F8043B98470136EEE755F82C
:1045C800043B98470136F2E71846000818460008E9
:1045D800184600081C460008F8B500BFF8BC08BC1F
:1045E8009E467047F8B500BFF8BC08BC9E467047A9
:1045F800000000000000000001020304060708098B
:084608000000000001020304A0
:08461000E8BBFF7F0100000080
:04461800AD010008E8
:04461C008901000808
:0C4620000024F400100000000100000065
:04000005080009E9FD
:00000001FF
